{
  "_format": "hh-sol-artifact-1",
  "contractName": "ehr",
  "sourceName": "contracts/ehr.sol",
  "abi": [
    {
      "anonymous": false,
      "inputs": [
        {
          "indexed": false,
          "internalType": "address",
          "name": "id",
          "type": "address"
        },
        {
          "indexed": false,
          "internalType": "string",
          "name": "name",
          "type": "string"
        }
      ],
      "name": "DoctorCreated",
      "type": "event"
    },
    {
      "anonymous": false,
      "inputs": [
        {
          "indexed": false,
          "internalType": "address",
          "name": "id",
          "type": "address"
        },
        {
          "indexed": false,
          "internalType": "string",
          "name": "name",
          "type": "string"
        }
      ],
      "name": "PatientCreated",
      "type": "event"
    },
    {
      "anonymous": false,
      "inputs": [
        {
          "indexed": false,
          "internalType": "address",
          "name": "p_id",
          "type": "address"
        },
        {
          "indexed": false,
          "internalType": "uint256",
          "name": "record_num",
          "type": "uint256"
        },
        {
          "indexed": false,
          "internalType": "uint256",
          "name": "timestamp",
          "type": "uint256"
        }
      ],
      "name": "PatientRecordUploaded",
      "type": "event"
    },
    {
      "anonymous": false,
      "inputs": [
        {
          "indexed": false,
          "internalType": "address",
          "name": "p_id",
          "type": "address"
        },
        {
          "indexed": false,
          "internalType": "address",
          "name": "d_id",
          "type": "address"
        }
      ],
      "name": "grantedAccess",
      "type": "event"
    },
    {
      "inputs": [
        {
          "internalType": "string",
          "name": "_name",
          "type": "string"
        }
      ],
      "name": "addDoctor",
      "outputs": [],
      "stateMutability": "nonpayable",
      "type": "function"
    },
    {
      "inputs": [
        {
          "internalType": "string",
          "name": "_name",
          "type": "string"
        }
      ],
      "name": "addPatient",
      "outputs": [],
      "stateMutability": "nonpayable",
      "type": "function"
    },
    {
      "inputs": [
        {
          "internalType": "address",
          "name": "p_id",
          "type": "address"
        },
        {
          "internalType": "string",
          "name": "rec_id",
          "type": "string"
        }
      ],
      "name": "addRecord",
      "outputs": [],
      "stateMutability": "nonpayable",
      "type": "function"
    },
    {
      "inputs": [
        {
          "internalType": "address",
          "name": "",
          "type": "address"
        }
      ],
      "name": "doctor_map",
      "outputs": [
        {
          "internalType": "address",
          "name": "id",
          "type": "address"
        },
        {
          "internalType": "string",
          "name": "name",
          "type": "string"
        }
      ],
      "stateMutability": "view",
      "type": "function"
    },
    {
      "inputs": [
        {
          "internalType": "address",
          "name": "p_id",
          "type": "address"
        }
      ],
      "name": "getNumberOfRecords",
      "outputs": [
        {
          "internalType": "uint256",
          "name": "num",
          "type": "uint256"
        }
      ],
      "stateMutability": "view",
      "type": "function"
    },
    {
      "inputs": [
        {
          "internalType": "address",
          "name": "p_id",
          "type": "address"
        },
        {
          "internalType": "uint256",
          "name": "record_num",
          "type": "uint256"
        }
      ],
      "name": "getPatientRecords",
      "outputs": [
        {
          "internalType": "string",
          "name": "rec_id",
          "type": "string"
        },
        {
          "internalType": "uint256",
          "name": "time_stamp",
          "type": "uint256"
        }
      ],
      "stateMutability": "view",
      "type": "function"
    },
    {
      "inputs": [
        {
          "internalType": "address",
          "name": "d_id",
          "type": "address"
        }
      ],
      "name": "grant_access",
      "outputs": [],
      "stateMutability": "nonpayable",
      "type": "function"
    },
    {
      "inputs": [],
      "name": "login",
      "outputs": [
        {
          "internalType": "string",
          "name": "userType",
          "type": "string"
        }
      ],
      "stateMutability": "view",
      "type": "function"
    },
    {
      "inputs": [
        {
          "internalType": "address",
          "name": "",
          "type": "address"
        }
      ],
      "name": "patient_map",
      "outputs": [
        {
          "internalType": "address",
          "name": "id",
          "type": "address"
        },
        {
          "internalType": "string",
          "name": "name",
          "type": "string"
        },
        {
          "internalType": "uint256",
          "name": "totalRecords",
          "type": "uint256"
        }
      ],
      "stateMutability": "view",
      "type": "function"
    },
    {
      "inputs": [
        {
          "internalType": "address",
          "name": "d_id",
          "type": "address"
        }
      ],
      "name": "revoke_access",
      "outputs": [],
      "stateMutability": "nonpayable",
      "type": "function"
    }
  ],
  "bytecode": "0x608060405234801561001057600080fd5b506128fc806100206000396000f3fe608060405234801561001057600080fd5b506004361061009e5760003560e01c8063bf019e4311610066578063bf019e4314610146578063c9d3caf214610162578063d5dfb78914610192578063f897c552146101c4578063fb87cf94146101f55761009e565b80630be61700146100a357806327b1dcee146100bf5780632874a75f146100db57806366858ec81461010c578063b34e97e814610128575b600080fd5b6100bd60048036038101906100b89190611fd1565b610211565b005b6100d960048036038101906100d49190611f18565b6103f6565b005b6100f560048036038101906100f09190611f95565b61086e565b604051610103929190612499565b60405180910390f35b61012660048036038101906101219190611f41565b610c9e565b005b6101306110a3565b60405161013d9190612477565b60405180910390f35b610160600480360381019061015b9190611f18565b611286565b005b61017c60048036038101906101779190611f18565b6116fd565b6040516101899190612669565b60405180910390f35b6101ac60048036038101906101a79190611f18565b611a1c565b6040516101bb93929190612402565b60405180910390f35b6101de60048036038101906101d99190611f18565b611aee565b6040516101ec9291906123d2565b60405180910390f35b61020f600480360381019061020a9190611fd1565b611bba565b005b3373ffffffffffffffffffffffffffffffffffffffff16600160003373ffffffffffffffffffffffffffffffffffffffff1673ffffffffffffffffffffffffffffffffffffffff16815260200190815260200160002060000160009054906101000a900473ffffffffffffffffffffffffffffffffffffffff1673ffffffffffffffffffffffffffffffffffffffff1614156102e2576040517f08c379a00000000000000000000000000000000000000000000000000000000081526004016102d990612629565b60405180910390fd5b33600160003373ffffffffffffffffffffffffffffffffffffffff1673ffffffffffffffffffffffffffffffffffffffff16815260200190815260200160002060000160006101000a81548173ffffffffffffffffffffffffffffffffffffffff021916908373ffffffffffffffffffffffffffffffffffffffff16021790555080600160003373ffffffffffffffffffffffffffffffffffffffff1673ffffffffffffffffffffffffffffffffffffffff16815260200190815260200160002060010190805190602001906103b9929190611de3565b507f134d2592bdd9e6233574dcd66b007a35e206e6308701683f852712c92d4ad33433826040516103eb9291906123d2565b60405180910390a150565b3373ffffffffffffffffffffffffffffffffffffffff166000803373ffffffffffffffffffffffffffffffffffffffff1673ffffffffffffffffffffffffffffffffffffffff16815260200190815260200160002060000160009054906101000a900473ffffffffffffffffffffffffffffffffffffffff1673ffffffffffffffffffffffffffffffffffffffff16146104c5576040517f08c379a00000000000000000000000000000000000000000000000000000000081526004016104bc90612529565b60405180910390fd5b8073ffffffffffffffffffffffffffffffffffffffff16600160008373ffffffffffffffffffffffffffffffffffffffff1673ffffffffffffffffffffffffffffffffffffffff16815260200190815260200160002060000160009054906101000a900473ffffffffffffffffffffffffffffffffffffffff1673ffffffffffffffffffffffffffffffffffffffff1614610595576040517f08c379a000000000000000000000000000000000000000000000000000000000815260040161058c90612609565b60405180910390fd5b600115156000803373ffffffffffffffffffffffffffffffffffffffff1673ffffffffffffffffffffffffffffffffffffffff16815260200190815260200160002060040160008373ffffffffffffffffffffffffffffffffffffffff1673ffffffffffffffffffffffffffffffffffffffff16815260200190815260200160002060009054906101000a900460ff1615151480156106c4575060011515600160008373ffffffffffffffffffffffffffffffffffffffff1673ffffffffffffffffffffffffffffffffffffffff16815260200190815260200160002060020160003373ffffffffffffffffffffffffffffffffffffffff1673ffffffffffffffffffffffffffffffffffffffff16815260200190815260200160002060009054906101000a900460ff161515145b610703576040517f08c379a00000000000000000000000000000000000000000000000000000000081526004016106fa906124e9565b60405180910390fd5b60008060003373ffffffffffffffffffffffffffffffffffffffff1673ffffffffffffffffffffffffffffffffffffffff16815260200190815260200160002060040160008373ffffffffffffffffffffffffffffffffffffffff1673ffffffffffffffffffffffffffffffffffffffff16815260200190815260200160002060006101000a81548160ff0219169083151502179055506000600160008373ffffffffffffffffffffffffffffffffffffffff1673ffffffffffffffffffffffffffffffffffffffff16815260200190815260200160002060020160003373ffffffffffffffffffffffffffffffffffffffff1673ffffffffffffffffffffffffffffffffffffffff16815260200190815260200160002060006101000a81548160ff0219169083151502179055507f3e13b385b8ea03e1731dda8a7f029a0aac99ca95eaae9e41130bf09bc1572e4833826040516108639291906123a9565b60405180910390a150565b606060008373ffffffffffffffffffffffffffffffffffffffff166000808673ffffffffffffffffffffffffffffffffffffffff1673ffffffffffffffffffffffffffffffffffffffff16815260200190815260200160002060000160009054906101000a900473ffffffffffffffffffffffffffffffffffffffff1673ffffffffffffffffffffffffffffffffffffffff1614610941576040517f08c379a000000000000000000000000000000000000000000000000000000000815260040161093890612549565b60405180910390fd5b3373ffffffffffffffffffffffffffffffffffffffff168473ffffffffffffffffffffffffffffffffffffffff1614610b17573373ffffffffffffffffffffffffffffffffffffffff16600160003373ffffffffffffffffffffffffffffffffffffffff1673ffffffffffffffffffffffffffffffffffffffff16815260200190815260200160002060000160009054906101000a900473ffffffffffffffffffffffffffffffffffffffff1673ffffffffffffffffffffffffffffffffffffffff1614610a44576040517f08c379a0000000000000000000000000000000000000000000000000000000008152600401610a3b90612509565b60405180910390fd5b600115156000808673ffffffffffffffffffffffffffffffffffffffff1673ffffffffffffffffffffffffffffffffffffffff16815260200190815260200160002060040160003373ffffffffffffffffffffffffffffffffffffffff1673ffffffffffffffffffffffffffffffffffffffff16815260200190815260200160002060009054906101000a900460ff16151514610b16576040517f08c379a0000000000000000000000000000000000000000000000000000000008152600401610b0d90612509565b60405180910390fd5b5b600083118015610b6857506000808573ffffffffffffffffffffffffffffffffffffffff1673ffffffffffffffffffffffffffffffffffffffff168152602001908152602001600020600201548311155b610ba7576040517f08c379a0000000000000000000000000000000000000000000000000000000008152600401610b9e906125a9565b60405180910390fd5b60008060008673ffffffffffffffffffffffffffffffffffffffff1673ffffffffffffffffffffffffffffffffffffffff16815260200190815260200160002060030160008581526020019081526020016000209050806000018160010154818054610c129061277f565b80601f0160208091040260200160405190810160405280929190818152602001828054610c3e9061277f565b8015610c8b5780601f10610c6057610100808354040283529160200191610c8b565b820191906000526020600020905b815481529060010190602001808311610c6e57829003601f168201915b5050505050915092509250509250929050565b3373ffffffffffffffffffffffffffffffffffffffff16600160003373ffffffffffffffffffffffffffffffffffffffff1673ffffffffffffffffffffffffffffffffffffffff16815260200190815260200160002060000160009054906101000a900473ffffffffffffffffffffffffffffffffffffffff1673ffffffffffffffffffffffffffffffffffffffff1614610d6e576040517f08c379a0000000000000000000000000000000000000000000000000000000008152600401610d6590612569565b60405180910390fd5b8173ffffffffffffffffffffffffffffffffffffffff166000808473ffffffffffffffffffffffffffffffffffffffff1673ffffffffffffffffffffffffffffffffffffffff16815260200190815260200160002060000160009054906101000a900473ffffffffffffffffffffffffffffffffffffffff1673ffffffffffffffffffffffffffffffffffffffff1614610e3d576040517f08c379a0000000000000000000000000000000000000000000000000000000008152600401610e34906125c9565b60405180910390fd5b600115156000808473ffffffffffffffffffffffffffffffffffffffff1673ffffffffffffffffffffffffffffffffffffffff16815260200190815260200160002060040160003373ffffffffffffffffffffffffffffffffffffffff1673ffffffffffffffffffffffffffffffffffffffff16815260200190815260200160002060009054906101000a900460ff161515148015610f6c575060011515600160003373ffffffffffffffffffffffffffffffffffffffff1673ffffffffffffffffffffffffffffffffffffffff16815260200190815260200160002060020160008473ffffffffffffffffffffffffffffffffffffffff1673ffffffffffffffffffffffffffffffffffffffff16815260200190815260200160002060009054906101000a900460ff161515145b610fab576040517f08c379a0000000000000000000000000000000000000000000000000000000008152600401610fa290612589565b60405180910390fd5b60008060008473ffffffffffffffffffffffffffffffffffffffff1673ffffffffffffffffffffffffffffffffffffffff1681526020019081526020016000209050806002016000815480929190611002906127b1565b919050555081816003016000836002015481526020019081526020016000206000019080519060200190611037929190611de3565b5060004290508082600301600084600201548152602001908152602001600020600101819055507f9fa5f643bfa6b38b755b80fbf7050b47a41daa8e9027684e538c56bb7b75be268483600201548360405161109593929190612440565b60405180910390a150505050565b60603373ffffffffffffffffffffffffffffffffffffffff166000803373ffffffffffffffffffffffffffffffffffffffff1673ffffffffffffffffffffffffffffffffffffffff16815260200190815260200160002060000160009054906101000a900473ffffffffffffffffffffffffffffffffffffffff1673ffffffffffffffffffffffffffffffffffffffff161415611177576040518060400160405280600781526020017f70617469656e74000000000000000000000000000000000000000000000000008152509050611283565b3373ffffffffffffffffffffffffffffffffffffffff16600160003373ffffffffffffffffffffffffffffffffffffffff1673ffffffffffffffffffffffffffffffffffffffff16815260200190815260200160002060000160009054906101000a900473ffffffffffffffffffffffffffffffffffffffff1673ffffffffffffffffffffffffffffffffffffffff16141561124a576040518060400160405280600681526020017f646f63746f7200000000000000000000000000000000000000000000000000008152509050611283565b6040518060400160405280600581526020017f677565737400000000000000000000000000000000000000000000000000000081525090505b90565b3373ffffffffffffffffffffffffffffffffffffffff166000803373ffffffffffffffffffffffffffffffffffffffff1673ffffffffffffffffffffffffffffffffffffffff16815260200190815260200160002060000160009054906101000a900473ffffffffffffffffffffffffffffffffffffffff1673ffffffffffffffffffffffffffffffffffffffff1614611355576040517f08c379a000000000000000000000000000000000000000000000000000000000815260040161134c90612529565b60405180910390fd5b8073ffffffffffffffffffffffffffffffffffffffff16600160008373ffffffffffffffffffffffffffffffffffffffff1673ffffffffffffffffffffffffffffffffffffffff16815260200190815260200160002060000160009054906101000a900473ffffffffffffffffffffffffffffffffffffffff1673ffffffffffffffffffffffffffffffffffffffff1614611425576040517f08c379a000000000000000000000000000000000000000000000000000000000815260040161141c90612609565b60405180910390fd5b600015156000803373ffffffffffffffffffffffffffffffffffffffff1673ffffffffffffffffffffffffffffffffffffffff16815260200190815260200160002060040160008373ffffffffffffffffffffffffffffffffffffffff1673ffffffffffffffffffffffffffffffffffffffff16815260200190815260200160002060009054906101000a900460ff161515148015611554575060001515600160008373ffffffffffffffffffffffffffffffffffffffff1673ffffffffffffffffffffffffffffffffffffffff16815260200190815260200160002060020160003373ffffffffffffffffffffffffffffffffffffffff1673ffffffffffffffffffffffffffffffffffffffff16815260200190815260200160002060009054906101000a900460ff161515145b611593576040517f08c379a000000000000000000000000000000000000000000000000000000000815260040161158a906124e9565b60405180910390fd5b60016000803373ffffffffffffffffffffffffffffffffffffffff1673ffffffffffffffffffffffffffffffffffffffff16815260200190815260200160002060040160008373ffffffffffffffffffffffffffffffffffffffff1673ffffffffffffffffffffffffffffffffffffffff16815260200190815260200160002060006101000a81548160ff02191690831515021790555060018060008373ffffffffffffffffffffffffffffffffffffffff1673ffffffffffffffffffffffffffffffffffffffff16815260200190815260200160002060020160003373ffffffffffffffffffffffffffffffffffffffff1673ffffffffffffffffffffffffffffffffffffffff16815260200190815260200160002060006101000a81548160ff0219169083151502179055507f3e13b385b8ea03e1731dda8a7f029a0aac99ca95eaae9e41130bf09bc1572e4833826040516116f29291906123a9565b60405180910390a150565b60003373ffffffffffffffffffffffffffffffffffffffff16600160003373ffffffffffffffffffffffffffffffffffffffff1673ffffffffffffffffffffffffffffffffffffffff16815260200190815260200160002060000160009054906101000a900473ffffffffffffffffffffffffffffffffffffffff1673ffffffffffffffffffffffffffffffffffffffff16141561190457600115156000808473ffffffffffffffffffffffffffffffffffffffff1673ffffffffffffffffffffffffffffffffffffffff16815260200190815260200160002060040160003373ffffffffffffffffffffffffffffffffffffffff1673ffffffffffffffffffffffffffffffffffffffff16815260200190815260200160002060009054906101000a900460ff1615151480156118c4575060011515600160003373ffffffffffffffffffffffffffffffffffffffff1673ffffffffffffffffffffffffffffffffffffffff16815260200190815260200160002060020160008473ffffffffffffffffffffffffffffffffffffffff1673ffffffffffffffffffffffffffffffffffffffff16815260200190815260200160002060009054906101000a900460ff161515145b611903576040517f08c379a00000000000000000000000000000000000000000000000000000000081526004016118fa906124c9565b60405180910390fd5b5b8173ffffffffffffffffffffffffffffffffffffffff166000808473ffffffffffffffffffffffffffffffffffffffff1673ffffffffffffffffffffffffffffffffffffffff16815260200190815260200160002060000160009054906101000a900473ffffffffffffffffffffffffffffffffffffffff1673ffffffffffffffffffffffffffffffffffffffff16146119d3576040517f08c379a00000000000000000000000000000000000000000000000000000000081526004016119ca906125e9565b60405180910390fd5b6000808373ffffffffffffffffffffffffffffffffffffffff1673ffffffffffffffffffffffffffffffffffffffff168152602001908152602001600020600201549050919050565b60006020528060005260406000206000915090508060000160009054906101000a900473ffffffffffffffffffffffffffffffffffffffff1690806001018054611a659061277f565b80601f0160208091040260200160405190810160405280929190818152602001828054611a919061277f565b8015611ade5780601f10611ab357610100808354040283529160200191611ade565b820191906000526020600020905b815481529060010190602001808311611ac157829003601f168201915b5050505050908060020154905083565b60016020528060005260406000206000915090508060000160009054906101000a900473ffffffffffffffffffffffffffffffffffffffff1690806001018054611b379061277f565b80601f0160208091040260200160405190810160405280929190818152602001828054611b639061277f565b8015611bb05780601f10611b8557610100808354040283529160200191611bb0565b820191906000526020600020905b815481529060010190602001808311611b9357829003601f168201915b5050505050905082565b3373ffffffffffffffffffffffffffffffffffffffff166000803373ffffffffffffffffffffffffffffffffffffffff1673ffffffffffffffffffffffffffffffffffffffff16815260200190815260200160002060000160009054906101000a900473ffffffffffffffffffffffffffffffffffffffff1673ffffffffffffffffffffffffffffffffffffffff161415611c8a576040517f08c379a0000000000000000000000000000000000000000000000000000000008152600401611c8190612649565b60405180910390fd5b336000803373ffffffffffffffffffffffffffffffffffffffff1673ffffffffffffffffffffffffffffffffffffffff16815260200190815260200160002060000160006101000a81548173ffffffffffffffffffffffffffffffffffffffff021916908373ffffffffffffffffffffffffffffffffffffffff160217905550806000803373ffffffffffffffffffffffffffffffffffffffff1673ffffffffffffffffffffffffffffffffffffffff1681526020019081526020016000206001019080519060200190611d5f929190611de3565b5060008060003373ffffffffffffffffffffffffffffffffffffffff1673ffffffffffffffffffffffffffffffffffffffff168152602001908152602001600020600201819055507f943d683f2eb82b2bc1836b4ecc04663a7dcaa05c5a9b17d9fa205959fb7de8d83382604051611dd89291906123d2565b60405180910390a150565b828054611def9061277f565b90600052602060002090601f016020900481019282611e115760008555611e58565b82601f10611e2a57805160ff1916838001178555611e58565b82800160010185558215611e58579182015b82811115611e57578251825591602001919060010190611e3c565b5b509050611e659190611e69565b5090565b5b80821115611e82576000816000905550600101611e6a565b5090565b6000611e99611e94846126b5565b612684565b905082815260208101848484011115611eb157600080fd5b611ebc84828561273d565b509392505050565b600081359050611ed381612898565b92915050565b600082601f830112611eea57600080fd5b8135611efa848260208601611e86565b91505092915050565b600081359050611f12816128af565b92915050565b600060208284031215611f2a57600080fd5b6000611f3884828501611ec4565b91505092915050565b60008060408385031215611f5457600080fd5b6000611f6285828601611ec4565b925050602083013567ffffffffffffffff811115611f7f57600080fd5b611f8b85828601611ed9565b9150509250929050565b60008060408385031215611fa857600080fd5b6000611fb685828601611ec4565b9250506020611fc785828601611f03565b9150509250929050565b600060208284031215611fe357600080fd5b600082013567ffffffffffffffff811115611ffd57600080fd5b61200984828501611ed9565b91505092915050565b61201b81612701565b82525050565b600061202c826126e5565b61203681856126f0565b935061204681856020860161274c565b61204f81612887565b840191505092915050565b60006120676017836126f0565b91507f7265616420616363657373206e6f74206772616e7465640000000000000000006000830152602082019050919050565b60006120a76016836126f0565b91507f41636365737320616c7265616479206772616e746564000000000000000000006000830152602082019050919050565b60006120e76015836126f0565b91507f416363657373206e6f7420617574686f72697a656400000000000000000000006000830152602082019050919050565b60006121276017836126f0565b91507f53656e646572206973206e6f7420612070617469656e740000000000000000006000830152602082019050919050565b6000612167600f836126f0565b91507f496e76616c69642070617469656e7400000000000000000000000000000000006000830152602082019050919050565b60006121a76016836126f0565b91507f53656e646572206973206e6f74206120646f63746f72000000000000000000006000830152602082019050919050565b60006121e76012836126f0565b91507f556e617574686f72697a656420656e74727900000000000000000000000000006000830152602082019050919050565b60006122276016836126f0565b91507f496e76616c6964207265636f72642072657175657374000000000000000000006000830152602082019050919050565b6000612267600d836126f0565b91507f4e6f7420612050617469656e74000000000000000000000000000000000000006000830152602082019050919050565b60006122a76015836126f0565b91507f50617469656e7420646f65736e277420657869737400000000000000000000006000830152602082019050919050565b60006122e76015836126f0565b91507f446f63746f7220646f6573206e6f7420657869737400000000000000000000006000830152602082019050919050565b6000612327601a836126f0565b91507f53656e64657220697320616c7265616479206120646f63746f720000000000006000830152602082019050919050565b6000612367601b836126f0565b91507f53656e64657220697320616c726561647920612070617469656e7400000000006000830152602082019050919050565b6123a381612733565b82525050565b60006040820190506123be6000830185612012565b6123cb6020830184612012565b9392505050565b60006040820190506123e76000830185612012565b81810360208301526123f98184612021565b90509392505050565b60006060820190506124176000830186612012565b81810360208301526124298185612021565b9050612438604083018461239a565b949350505050565b60006060820190506124556000830186612012565b612462602083018561239a565b61246f604083018461239a565b949350505050565b600060208201905081810360008301526124918184612021565b905092915050565b600060408201905081810360008301526124b38185612021565b90506124c2602083018461239a565b9392505050565b600060208201905081810360008301526124e28161205a565b9050919050565b600060208201905081810360008301526125028161209a565b9050919050565b60006020820190508181036000830152612522816120da565b9050919050565b600060208201905081810360008301526125428161211a565b9050919050565b600060208201905081810360008301526125628161215a565b9050919050565b600060208201905081810360008301526125828161219a565b9050919050565b600060208201905081810360008301526125a2816121da565b9050919050565b600060208201905081810360008301526125c28161221a565b9050919050565b600060208201905081810360008301526125e28161225a565b9050919050565b600060208201905081810360008301526126028161229a565b9050919050565b60006020820190508181036000830152612622816122da565b9050919050565b600060208201905081810360008301526126428161231a565b9050919050565b600060208201905081810360008301526126628161235a565b9050919050565b600060208201905061267e600083018461239a565b92915050565b6000604051905081810181811067ffffffffffffffff821117156126ab576126aa612858565b5b8060405250919050565b600067ffffffffffffffff8211156126d0576126cf612858565b5b601f19601f8301169050602081019050919050565b600081519050919050565b600082825260208201905092915050565b600061270c82612713565b9050919050565b600073ffffffffffffffffffffffffffffffffffffffff82169050919050565b6000819050919050565b82818337600083830152505050565b60005b8381101561276a57808201518184015260208101905061274f565b83811115612779576000848401525b50505050565b6000600282049050600182168061279757607f821691505b602082108114156127ab576127aa612829565b5b50919050565b60006127bc82612733565b91507fffffffffffffffffffffffffffffffffffffffffffffffffffffffffffffffff8214156127ef576127ee6127fa565b5b600182019050919050565b7f4e487b7100000000000000000000000000000000000000000000000000000000600052601160045260246000fd5b7f4e487b7100000000000000000000000000000000000000000000000000000000600052602260045260246000fd5b7f4e487b7100000000000000000000000000000000000000000000000000000000600052604160045260246000fd5b6000601f19601f8301169050919050565b6128a181612701565b81146128ac57600080fd5b50565b6128b881612733565b81146128c357600080fd5b5056fea264697066735822122051f1731e5f766da1a1492b3703e207512a99d9b3a862ba3bbcdd4e4b6be87fbe64736f6c63430008000033",
  "linkReferences": {},
  "deployedLinkReferences": {}
}