{
    "_format": "hh-sol-artifact-1",
    "contractName": "ehr",
    "sourceName": "contracts/ehr.sol",
    "abi": [
        {
            "anonymous": false,
            "inputs": [
                {
                    "indexed": false,
                    "internalType": "address",
                    "name": "id",
                    "type": "address"
                },
                {
                    "indexed": false,
                    "internalType": "string",
                    "name": "name",
                    "type": "string"
                }
            ],
            "name": "DoctorCreated",
            "type": "event"
        },
        {
            "anonymous": false,
            "inputs": [
                {
                    "indexed": false,
                    "internalType": "address",
                    "name": "id",
                    "type": "address"
                },
                {
                    "indexed": false,
                    "internalType": "string",
                    "name": "name",
                    "type": "string"
                }
            ],
            "name": "PatientCreated",
            "type": "event"
        },
        {
            "anonymous": false,
            "inputs": [
                {
                    "indexed": false,
                    "internalType": "address",
                    "name": "p_id",
                    "type": "address"
                },
                {
                    "indexed": false,
                    "internalType": "uint256",
                    "name": "record_num",
                    "type": "uint256"
                },
                {
                    "indexed": false,
                    "internalType": "uint256",
                    "name": "timestamp",
                    "type": "uint256"
                }
            ],
            "name": "PatientRecordUploaded",
            "type": "event"
        },
        {
            "anonymous": false,
            "inputs": [
                {
                    "indexed": false,
                    "internalType": "address",
                    "name": "p_id",
                    "type": "address"
                },
                {
                    "indexed": false,
                    "internalType": "address",
                    "name": "d_id",
                    "type": "address"
                }
            ],
            "name": "grantedAccess",
            "type": "event"
        },
        {
            "inputs": [
                {
                    "internalType": "string",
                    "name": "_name",
                    "type": "string"
                }
            ],
            "name": "addDoctor",
            "outputs": [],
            "stateMutability": "nonpayable",
            "type": "function"
        },
        {
            "inputs": [
                {
                    "internalType": "string",
                    "name": "_name",
                    "type": "string"
                }
            ],
            "name": "addPatient",
            "outputs": [],
            "stateMutability": "nonpayable",
            "type": "function"
        },
        {
            "inputs": [
                {
                    "internalType": "address",
                    "name": "p_id",
                    "type": "address"
                },
                {
                    "internalType": "string",
                    "name": "rec_id",
                    "type": "string"
                }
            ],
            "name": "addRecord",
            "outputs": [],
            "stateMutability": "nonpayable",
            "type": "function"
        },
        {
            "inputs": [
                {
                    "internalType": "address",
                    "name": "",
                    "type": "address"
                }
            ],
            "name": "doctor_map",
            "outputs": [
                {
                    "internalType": "address",
                    "name": "id",
                    "type": "address"
                },
                {
                    "internalType": "string",
                    "name": "name",
                    "type": "string"
                }
            ],
            "stateMutability": "view",
            "type": "function"
        },
        {
            "inputs": [
                {
                    "internalType": "address",
                    "name": "p_id",
                    "type": "address"
                },
                {
                    "internalType": "uint256",
                    "name": "record_num",
                    "type": "uint256"
                }
            ],
            "name": "getPatientRecords",
            "outputs": [
                {
                    "internalType": "string",
                    "name": "rec_id",
                    "type": "string"
                },
                {
                    "internalType": "uint256",
                    "name": "time_stamp",
                    "type": "uint256"
                }
            ],
            "stateMutability": "view",
            "type": "function"
        },
        {
            "inputs": [
                {
                    "internalType": "address",
                    "name": "d_id",
                    "type": "address"
                }
            ],
            "name": "grant_access",
            "outputs": [],
            "stateMutability": "nonpayable",
            "type": "function"
        },
        {
            "inputs": [],
            "name": "login",
            "outputs": [
                {
                    "internalType": "string",
                    "name": "userType",
                    "type": "string"
                }
            ],
            "stateMutability": "view",
            "type": "function"
        },
        {
            "inputs": [
                {
                    "internalType": "address",
                    "name": "",
                    "type": "address"
                }
            ],
            "name": "patient_map",
            "outputs": [
                {
                    "internalType": "address",
                    "name": "id",
                    "type": "address"
                },
                {
                    "internalType": "string",
                    "name": "name",
                    "type": "string"
                },
                {
                    "internalType": "uint256",
                    "name": "totalRecords",
                    "type": "uint256"
                }
            ],
            "stateMutability": "view",
            "type": "function"
        },
        {
            "inputs": [
                {
                    "internalType": "address",
                    "name": "d_id",
                    "type": "address"
                }
            ],
            "name": "revoke_access",
            "outputs": [],
            "stateMutability": "nonpayable",
            "type": "function"
        }
    ],
    "bytecode": "0x608060405234801561001057600080fd5b50611f53806100206000396000f3fe608060405234801561001057600080fd5b50600436106100935760003560e01c8063b34e97e811610066578063b34e97e81461011d578063bf019e431461013b578063d5dfb78914610157578063f897c55214610189578063fb87cf94146101ba57610093565b80630be617001461009857806327b1dcee146100b45780632874a75f146100d057806366858ec814610101575b600080fd5b6100b260048036038101906100ad9190611763565b6101d6565b005b6100ce60048036038101906100c991906116aa565b6103bb565b005b6100ea60048036038101906100e59190611727565b61048d565b6040516100f8929190611b6b565b60405180910390f35b61011b600480360381019061011691906116d3565b6108bd565b005b610125610b54565b6040516101329190611b49565b60405180910390f35b610155600480360381019061015091906116aa565b610d37565b005b610171600480360381019061016c91906116aa565b6111ae565b60405161018093929190611ad4565b60405180910390f35b6101a3600480360381019061019e91906116aa565b611280565b6040516101b1929190611aa4565b60405180910390f35b6101d460048036038101906101cf9190611763565b61134c565b005b3373ffffffffffffffffffffffffffffffffffffffff16600160003373ffffffffffffffffffffffffffffffffffffffff1673ffffffffffffffffffffffffffffffffffffffff16815260200190815260200160002060000160009054906101000a900473ffffffffffffffffffffffffffffffffffffffff1673ffffffffffffffffffffffffffffffffffffffff1614156102a7576040517f08c379a000000000000000000000000000000000000000000000000000000000815260040161029e90611c9b565b60405180910390fd5b33600160003373ffffffffffffffffffffffffffffffffffffffff1673ffffffffffffffffffffffffffffffffffffffff16815260200190815260200160002060000160006101000a81548173ffffffffffffffffffffffffffffffffffffffff021916908373ffffffffffffffffffffffffffffffffffffffff16021790555080600160003373ffffffffffffffffffffffffffffffffffffffff1673ffffffffffffffffffffffffffffffffffffffff168152602001908152602001600020600101908051906020019061037e929190611575565b507f134d2592bdd9e6233574dcd66b007a35e206e6308701683f852712c92d4ad33433826040516103b0929190611aa4565b60405180910390a150565b3373ffffffffffffffffffffffffffffffffffffffff166000803373ffffffffffffffffffffffffffffffffffffffff1673ffffffffffffffffffffffffffffffffffffffff16815260200190815260200160002060000160009054906101000a900473ffffffffffffffffffffffffffffffffffffffff1673ffffffffffffffffffffffffffffffffffffffff161461048a576040517f08c379a000000000000000000000000000000000000000000000000000000000815260040161048190611bdb565b60405180910390fd5b50565b606060008373ffffffffffffffffffffffffffffffffffffffff166000808673ffffffffffffffffffffffffffffffffffffffff1673ffffffffffffffffffffffffffffffffffffffff16815260200190815260200160002060000160009054906101000a900473ffffffffffffffffffffffffffffffffffffffff1673ffffffffffffffffffffffffffffffffffffffff1614610560576040517f08c379a000000000000000000000000000000000000000000000000000000000815260040161055790611bfb565b60405180910390fd5b3373ffffffffffffffffffffffffffffffffffffffff168473ffffffffffffffffffffffffffffffffffffffff1614610736573373ffffffffffffffffffffffffffffffffffffffff16600160003373ffffffffffffffffffffffffffffffffffffffff1673ffffffffffffffffffffffffffffffffffffffff16815260200190815260200160002060000160009054906101000a900473ffffffffffffffffffffffffffffffffffffffff1673ffffffffffffffffffffffffffffffffffffffff1614610663576040517f08c379a000000000000000000000000000000000000000000000000000000000815260040161065a90611bbb565b60405180910390fd5b600115156000808673ffffffffffffffffffffffffffffffffffffffff1673ffffffffffffffffffffffffffffffffffffffff16815260200190815260200160002060040160003373ffffffffffffffffffffffffffffffffffffffff1673ffffffffffffffffffffffffffffffffffffffff16815260200190815260200160002060009054906101000a900460ff16151514610735576040517f08c379a000000000000000000000000000000000000000000000000000000000815260040161072c90611bbb565b60405180910390fd5b5b60008311801561078757506000808573ffffffffffffffffffffffffffffffffffffffff1673ffffffffffffffffffffffffffffffffffffffff168152602001908152602001600020600201548311155b6107c6576040517f08c379a00000000000000000000000000000000000000000000000000000000081526004016107bd90611c3b565b60405180910390fd5b60008060008673ffffffffffffffffffffffffffffffffffffffff1673ffffffffffffffffffffffffffffffffffffffff1681526020019081526020016000206003016000858152602001908152602001600020905080600001816001015481805461083190611dd6565b80601f016020809104026020016040519081016040528092919081815260200182805461085d90611dd6565b80156108aa5780601f1061087f576101008083540402835291602001916108aa565b820191906000526020600020905b81548152906001019060200180831161088d57829003601f168201915b5050505050915092509250509250929050565b3373ffffffffffffffffffffffffffffffffffffffff16600160003373ffffffffffffffffffffffffffffffffffffffff1673ffffffffffffffffffffffffffffffffffffffff16815260200190815260200160002060000160009054906101000a900473ffffffffffffffffffffffffffffffffffffffff1673ffffffffffffffffffffffffffffffffffffffff161461098d576040517f08c379a000000000000000000000000000000000000000000000000000000000815260040161098490611c1b565b60405180910390fd5b8173ffffffffffffffffffffffffffffffffffffffff166000808473ffffffffffffffffffffffffffffffffffffffff1673ffffffffffffffffffffffffffffffffffffffff16815260200190815260200160002060000160009054906101000a900473ffffffffffffffffffffffffffffffffffffffff1673ffffffffffffffffffffffffffffffffffffffff1614610a5c576040517f08c379a0000000000000000000000000000000000000000000000000000000008152600401610a5390611c5b565b60405180910390fd5b60008060008473ffffffffffffffffffffffffffffffffffffffff1673ffffffffffffffffffffffffffffffffffffffff1681526020019081526020016000209050806002016000815480929190610ab390611e08565b919050555081816003016000836002015481526020019081526020016000206000019080519060200190610ae8929190611575565b5060004290508082600301600084600201548152602001908152602001600020600101819055507f9fa5f643bfa6b38b755b80fbf7050b47a41daa8e9027684e538c56bb7b75be2684836002015483604051610b4693929190611b12565b60405180910390a150505050565b60603373ffffffffffffffffffffffffffffffffffffffff166000803373ffffffffffffffffffffffffffffffffffffffff1673ffffffffffffffffffffffffffffffffffffffff16815260200190815260200160002060000160009054906101000a900473ffffffffffffffffffffffffffffffffffffffff1673ffffffffffffffffffffffffffffffffffffffff161415610c28576040518060400160405280600781526020017f70617469656e74000000000000000000000000000000000000000000000000008152509050610d34565b3373ffffffffffffffffffffffffffffffffffffffff16600160003373ffffffffffffffffffffffffffffffffffffffff1673ffffffffffffffffffffffffffffffffffffffff16815260200190815260200160002060000160009054906101000a900473ffffffffffffffffffffffffffffffffffffffff1673ffffffffffffffffffffffffffffffffffffffff161415610cfb576040518060400160405280600681526020017f646f63746f7200000000000000000000000000000000000000000000000000008152509050610d34565b6040518060400160405280600581526020017f677565737400000000000000000000000000000000000000000000000000000081525090505b90565b3373ffffffffffffffffffffffffffffffffffffffff166000803373ffffffffffffffffffffffffffffffffffffffff1673ffffffffffffffffffffffffffffffffffffffff16815260200190815260200160002060000160009054906101000a900473ffffffffffffffffffffffffffffffffffffffff1673ffffffffffffffffffffffffffffffffffffffff1614610e06576040517f08c379a0000000000000000000000000000000000000000000000000000000008152600401610dfd90611bdb565b60405180910390fd5b8073ffffffffffffffffffffffffffffffffffffffff16600160008373ffffffffffffffffffffffffffffffffffffffff1673ffffffffffffffffffffffffffffffffffffffff16815260200190815260200160002060000160009054906101000a900473ffffffffffffffffffffffffffffffffffffffff1673ffffffffffffffffffffffffffffffffffffffff1614610ed6576040517f08c379a0000000000000000000000000000000000000000000000000000000008152600401610ecd90611c7b565b60405180910390fd5b600015156000803373ffffffffffffffffffffffffffffffffffffffff1673ffffffffffffffffffffffffffffffffffffffff16815260200190815260200160002060040160008373ffffffffffffffffffffffffffffffffffffffff1673ffffffffffffffffffffffffffffffffffffffff16815260200190815260200160002060009054906101000a900460ff161515148015611005575060001515600160008373ffffffffffffffffffffffffffffffffffffffff1673ffffffffffffffffffffffffffffffffffffffff16815260200190815260200160002060020160003373ffffffffffffffffffffffffffffffffffffffff1673ffffffffffffffffffffffffffffffffffffffff16815260200190815260200160002060009054906101000a900460ff161515145b611044576040517f08c379a000000000000000000000000000000000000000000000000000000000815260040161103b90611b9b565b60405180910390fd5b60016000803373ffffffffffffffffffffffffffffffffffffffff1673ffffffffffffffffffffffffffffffffffffffff16815260200190815260200160002060040160008373ffffffffffffffffffffffffffffffffffffffff1673ffffffffffffffffffffffffffffffffffffffff16815260200190815260200160002060006101000a81548160ff02191690831515021790555060018060008373ffffffffffffffffffffffffffffffffffffffff1673ffffffffffffffffffffffffffffffffffffffff16815260200190815260200160002060020160003373ffffffffffffffffffffffffffffffffffffffff1673ffffffffffffffffffffffffffffffffffffffff16815260200190815260200160002060006101000a81548160ff0219169083151502179055507f3e13b385b8ea03e1731dda8a7f029a0aac99ca95eaae9e41130bf09bc1572e4833826040516111a3929190611a7b565b60405180910390a150565b60006020528060005260406000206000915090508060000160009054906101000a900473ffffffffffffffffffffffffffffffffffffffff16908060010180546111f790611dd6565b80601f016020809104026020016040519081016040528092919081815260200182805461122390611dd6565b80156112705780601f1061124557610100808354040283529160200191611270565b820191906000526020600020905b81548152906001019060200180831161125357829003601f168201915b5050505050908060020154905083565b60016020528060005260406000206000915090508060000160009054906101000a900473ffffffffffffffffffffffffffffffffffffffff16908060010180546112c990611dd6565b80601f01602080910402602001604051908101604052809291908181526020018280546112f590611dd6565b80156113425780601f1061131757610100808354040283529160200191611342565b820191906000526020600020905b81548152906001019060200180831161132557829003601f168201915b5050505050905082565b3373ffffffffffffffffffffffffffffffffffffffff166000803373ffffffffffffffffffffffffffffffffffffffff1673ffffffffffffffffffffffffffffffffffffffff16815260200190815260200160002060000160009054906101000a900473ffffffffffffffffffffffffffffffffffffffff1673ffffffffffffffffffffffffffffffffffffffff16141561141c576040517f08c379a000000000000000000000000000000000000000000000000000000000815260040161141390611cbb565b60405180910390fd5b336000803373ffffffffffffffffffffffffffffffffffffffff1673ffffffffffffffffffffffffffffffffffffffff16815260200190815260200160002060000160006101000a81548173ffffffffffffffffffffffffffffffffffffffff021916908373ffffffffffffffffffffffffffffffffffffffff160217905550806000803373ffffffffffffffffffffffffffffffffffffffff1673ffffffffffffffffffffffffffffffffffffffff16815260200190815260200160002060010190805190602001906114f1929190611575565b5060008060003373ffffffffffffffffffffffffffffffffffffffff1673ffffffffffffffffffffffffffffffffffffffff168152602001908152602001600020600201819055507f943d683f2eb82b2bc1836b4ecc04663a7dcaa05c5a9b17d9fa205959fb7de8d8338260405161156a929190611aa4565b60405180910390a150565b82805461158190611dd6565b90600052602060002090601f0160209004810192826115a357600085556115ea565b82601f106115bc57805160ff19168380011785556115ea565b828001600101855582156115ea579182015b828111156115e95782518255916020019190600101906115ce565b5b5090506115f791906115fb565b5090565b5b808211156116145760008160009055506001016115fc565b5090565b600061162b61162684611d0c565b611cdb565b90508281526020810184848401111561164357600080fd5b61164e848285611d94565b509392505050565b60008135905061166581611eef565b92915050565b600082601f83011261167c57600080fd5b813561168c848260208601611618565b91505092915050565b6000813590506116a481611f06565b92915050565b6000602082840312156116bc57600080fd5b60006116ca84828501611656565b91505092915050565b600080604083850312156116e657600080fd5b60006116f485828601611656565b925050602083013567ffffffffffffffff81111561171157600080fd5b61171d8582860161166b565b9150509250929050565b6000806040838503121561173a57600080fd5b600061174885828601611656565b925050602061175985828601611695565b9150509250929050565b60006020828403121561177557600080fd5b600082013567ffffffffffffffff81111561178f57600080fd5b61179b8482850161166b565b91505092915050565b6117ad81611d58565b82525050565b60006117be82611d3c565b6117c88185611d47565b93506117d8818560208601611da3565b6117e181611ede565b840191505092915050565b60006117f9601683611d47565b91507f41636365737320616c7265616479206772616e746564000000000000000000006000830152602082019050919050565b6000611839601583611d47565b91507f416363657373206e6f7420617574686f72697a656400000000000000000000006000830152602082019050919050565b6000611879601783611d47565b91507f53656e646572206973206e6f7420612070617469656e740000000000000000006000830152602082019050919050565b60006118b9600f83611d47565b91507f496e76616c69642070617469656e7400000000000000000000000000000000006000830152602082019050919050565b60006118f9601683611d47565b91507f53656e646572206973206e6f74206120646f63746f72000000000000000000006000830152602082019050919050565b6000611939601683611d47565b91507f496e76616c6964207265636f72642072657175657374000000000000000000006000830152602082019050919050565b6000611979600d83611d47565b91507f4e6f7420612050617469656e74000000000000000000000000000000000000006000830152602082019050919050565b60006119b9601583611d47565b91507f446f63746f7220646f6573206e6f7420657869737400000000000000000000006000830152602082019050919050565b60006119f9601a83611d47565b91507f53656e64657220697320616c7265616479206120646f63746f720000000000006000830152602082019050919050565b6000611a39601b83611d47565b91507f53656e64657220697320616c726561647920612070617469656e7400000000006000830152602082019050919050565b611a7581611d8a565b82525050565b6000604082019050611a9060008301856117a4565b611a9d60208301846117a4565b9392505050565b6000604082019050611ab960008301856117a4565b8181036020830152611acb81846117b3565b90509392505050565b6000606082019050611ae960008301866117a4565b8181036020830152611afb81856117b3565b9050611b0a6040830184611a6c565b949350505050565b6000606082019050611b2760008301866117a4565b611b346020830185611a6c565b611b416040830184611a6c565b949350505050565b60006020820190508181036000830152611b6381846117b3565b905092915050565b60006040820190508181036000830152611b8581856117b3565b9050611b946020830184611a6c565b9392505050565b60006020820190508181036000830152611bb4816117ec565b9050919050565b60006020820190508181036000830152611bd48161182c565b9050919050565b60006020820190508181036000830152611bf48161186c565b9050919050565b60006020820190508181036000830152611c14816118ac565b9050919050565b60006020820190508181036000830152611c34816118ec565b9050919050565b60006020820190508181036000830152611c548161192c565b9050919050565b60006020820190508181036000830152611c748161196c565b9050919050565b60006020820190508181036000830152611c94816119ac565b9050919050565b60006020820190508181036000830152611cb4816119ec565b9050919050565b60006020820190508181036000830152611cd481611a2c565b9050919050565b6000604051905081810181811067ffffffffffffffff82111715611d0257611d01611eaf565b5b8060405250919050565b600067ffffffffffffffff821115611d2757611d26611eaf565b5b601f19601f8301169050602081019050919050565b600081519050919050565b600082825260208201905092915050565b6000611d6382611d6a565b9050919050565b600073ffffffffffffffffffffffffffffffffffffffff82169050919050565b6000819050919050565b82818337600083830152505050565b60005b83811015611dc1578082015181840152602081019050611da6565b83811115611dd0576000848401525b50505050565b60006002820490506001821680611dee57607f821691505b60208210811415611e0257611e01611e80565b5b50919050565b6000611e1382611d8a565b91507fffffffffffffffffffffffffffffffffffffffffffffffffffffffffffffffff821415611e4657611e45611e51565b5b600182019050919050565b7f4e487b7100000000000000000000000000000000000000000000000000000000600052601160045260246000fd5b7f4e487b7100000000000000000000000000000000000000000000000000000000600052602260045260246000fd5b7f4e487b7100000000000000000000000000000000000000000000000000000000600052604160045260246000fd5b6000601f19601f8301169050919050565b611ef881611d58565b8114611f0357600080fd5b50565b611f0f81611d8a565b8114611f1a57600080fd5b5056fea2646970667358221220d6b387e31e090e6f11b63ed3a065ea553b23219da9ced5e2b8428e13256e13cd64736f6c63430008000033",
    "linkReferences": {},
    "deployedLinkReferences": {}
}